:0400000093EF6FF01B
:10DF04002F0E9CEC6FF012002E0E9CEC6FF01200A2
:10DF14008C94E4EC6FF0E4EC6FF08C84E4EC6FF040
:10DF2400120000EE38F00A0EEE6AE806FDE1000188
:10DF340077EF72F0036E8C908C920350B2EC6FF01A
:10DF44000009D8A4FAD78C801200036E8C908C82BE
:10DF54000350B2EC6FF00009D8A4FAD78C801200F9
:10DF6400026EC9CF01F09E96C69E02C0C9FFC6AE1E
:10DF740002D0FF0E12009EA6FED7000E1200036E02
:10DF8400000E026E3A0E035CD8B005D02F0E036467
:10DF940002D0010E026E02C001F0013012000150E5
:10DFA4000302F3CF05F0F4CF06F001500402F3505E
:10DFB400062602500302F350062605C001F006C0EF
:10DFC40002F01200000E036E000E026EF40E025CEC
:10DFD400010E0358D8B01200150E016EC60EE82EBD
:10DFE400FED7012EFCD700D0024A032AEFD7000E39
:10DFF400056E000E046E0AD0150E036EC60EE82ED2
:10E00400FED7032EFCD700D0044A052A0150045C35
:10E0140002500558D8B01200EFD7000E3D6E0AC06A
:10E024003CF009C03BF00BC041F00CC001F0026AA7
:10E03400000E046E080E036E4AEC71F001503E6E41
:10E044000DC040F00EC03FF01200066E06500F0BDC
:10E05400056E06380F0B0F0B076E07501009076E7D
:10E064000450070B046E0450B009046E05509CEC78
:10E074006FF007509CEC6FF004509CEC6FF01200B2
:10E08400086E000E0A6E070E0A6401D012000AC060
:10E0940004F0000E27EC70F0000E096E04D0085056
:10E0A400A7EC6FF0092A7F0E0964F9D70A2A070E34
:10E0B4000A64EDD7120015C017F010D017C008F08D
:10E0C40016C009F013C0D9FF14C0DAFFDF50FEEC0C
:10E0D40071F017504124176E134A142A13C0D9FF44
:10E0E40014C0DAFFDF50D8B41200E8D7066E86EC0D
:10E0F4006FF0260E9CEC6FF0000E9CEC6FF0065057
:10E104009CEC6FF005509CEC6FF004509CEC6FF0AD
:10E11400000E9CEC6FF0FF0E9CEC6FF082EC6FF045
:10E12400120015C017F012D017C008F016C009F07D
:10E1340013C0F6FF14C0F7FFF86A0800F550FEECB0
:10E1440071F017504124176E134A142A13C0F6FFB6
:10E1540014C0F7FFF86A0800F5500009D8B412009B
:10E16400E3D70B500A10D8B418D0010E0C6E04D0AB
:10E17400D8900A360B360C2A0BAEFAD70A50085C34
:10E184000B500958D8A004D00A50085E0B50095A05
:10E19400D8900B320A320C2EF1D708C008F009C00F
:10E1A40009F01200000E0B6E070E0B6401D0120072
:10E1B4000BC004F0000E27EC70F0000E0A6E0CD0B9
:10E1C40008C0F6FF09C0F7FFF86A0800F550A7EC8D
:10E1D4006FF0084A092A0A2A7F0E0A64F1D70B2A2B
:10E1E400070E0B64E5D71200000E066E000E056ED6
:10E1F40004500310D8B41CD0010E076E04D0D8907C
:10E2040003360436072A04AEFAD7D8900536063604
:10E214000350015C04500258D8A005D00350015E9D
:10E224000450025A0580D89004320332072EEDD7E9
:10E2340005C001F006C002F01200036E3F0EC716BF
:10E24400000EC66E0350C6120250C71205D0C78C0A
:10E2540013D0C78CC68810D00150000AD8B4F7D7A1
:10E26400020AD8B4F6D7010AD8B4F4D705D0928AF2
:10E2740094860AD0949608D00350040AD8B4F7D7E9
:10E28400010AD8B4F5D7F6D79488949AC68A1200AE
:10E29400000E066E0450800AF36E800EF35C000ECE
:10E2A400D8B4035CD8B006D0036C041ED8B0042ADA
:10E2B400010E066E0250800AF36E800EF35C000EAF
:10E2C400D8B4015CD8B006D0016C021ED8B0022AC2
:10E2D400010E061A000E086E000E076E045003109D
:10E2E400D8B41CD0010E056E04D0D8900336043681
:10E2F400052A04AEFAD7D890073608360350015CD5
:10E3040004500258D8A005D00350015E0450025AAC
:10E314000780D89004320332052EEDD70650D8B4C6
:10E3240004D0076C081ED8B0082A07C001F008C042
:10E3340002F012009590959295948C808C928C9416
:10E34400E4EC6FF08AEC6FF0AE0E9CEC6FF0810E93
:10E354009CEC6FF0CF0E9CEC6FF0A40E9CEC6FF075
:10E36400A60E9CEC6FF0200E9CEC6FF0020E9CEC61
:10E374006FF0000E9CEC6FF0100E9CEC6FF0B00E82
:10E384009CEC6FF0400E9CEC6FF0A10E9CEC6FF0D7
:10E39400A80E9CEC6FF03F0E9CEC6FF0C80E9CEC4A
:10E3A4006FF0D30E9CEC6FF0000E9CEC6FF0DA0E65
:10E3B4009CEC6FF0120E9CEC6FF0D50E9CEC6FF0A1
:10E3C400800E9CEC6FF0D90E9CEC6FF0F10E9CEC7F
:10E3D4006FF0DB0E9CEC6FF0400E9CEC6FF08D0E3A
:10E3E4009CEC6FF0140E9CEC6FF0AF0E9CEC6FF095
:10E3F400000E42EC70F012000C6E08C010F009C060
:10E404000DF03DC03AF03CC039F03BC038F040500C
:10E414000A6E0B6A0A1E0B1E0A4A0B2A0C500A24A7
:10E42400116E000E0B20126E41503E02F3CF01F02C
:10E43400F4CF02F011C003F012C004F0D1EC6FF07D
:10E4440001C011F002C012F0000E0F6E000E0E6E2D
:10E4540008D0010E3826000E3922000E3A220E4A48
:10E464000F2A11500E5C12500F58D8A0F2D7000E8C
:10E474000F6E000E0E6E2FD009C00DF0000E126E3E
:10E48400000E116E1CD0800E105CD8B00FD00DC0E1
:10E4940004F0105027EC70F038C0F6FF39C0F7FFD5
:10E4A4003AC0F8FF0800F550A7EC6FF00D2A010EF2
:10E4B4003826000E3922000E3A22114A122A3E5002
:10E4C4000A6E0B6A0A50115C0B501258D8A0DBD7A5
:10E4D400102A0E4A0F2A41500A6E0B6A0A500E5C2B
:10E4E4000B500F58D8B01200C7D7700ED36E9B8C48
:10E4F400000E0F01386F000E0F01396F000E0F016F
:10E504003A6F000E0F013B6F000E0F013C6F000EBF
:10E51400806E000E816E000E826E000E836E000E01
:10E52400846E000E926E000E936E000E946E000EBA
:10E53400956E000E966EC69A000E016E800E026EE7
:10E54400010E1FEC71F09CEC71F0EA0E0A6E330EB2
:10E55400096E0C0E0B6E100E0C6E200E0D6E7F0EDF
:10E564000E6E0FEC70F0FF0E146ED80E136E000ECC
:10E57400156E000E166E93EC70F0FF0E146EEC0E1A
:10E58400136E000E156E020E166E93EC70F0FF0EF5
:10E59400146ECC0E136E000E156E040E166E93ECF4
:10E5A40070F0FF0E146EE40E136E000E156E060E60
:10E5B400166E93EC70F0130E026E880E016EF9EC79
:10E5C4006FF0000E42EC70F0FF0E146EF40E136E3A
:10E5D400230E156E000E166E93EC70F0000E376E5F
:10E5E4005CD0000E0E6E230E0D6EFF0E106EFA0E32
:10E5F4000F6E37C011F0126AB6EC73F0F30E0A6EA8
:10E60400330E096E190E0B6E280E0C6E2E0E0D6E47
:10E614003A0E0E6E0FEC70F0000E146E230E136E95
:10E62400000E156E030E166E5DEC70F0EA0E0A6EA7
:10E63400330E096E0C0E0B6E100E0C6E200E0D6E4A
:10E644007F0E0E6E0FEC70F0000E146E230E136E20
:10E654005A0E156E030E166E5DEC70F0FD0E0A6E0A
:10E664008C0E096E060E0B6E080E0C6E200E0D6ECF
:10E674007F0E0E6E0FEC70F0000E146E230E136EF0
:10E68400630E156E060E166E5DEC70F0000E026ED3
:10E69400C80E016EF9EC6FF0372A700E3764A1D7FB
:10E6A400130E026E880E016EF9EC6FF0000E42EC50
:10E6B40070F0F90E096E8C0E086ED4EC70F0130E27
:10E6C400026E880E016EF9EC6FF0000E42EC70F0F1
:10E6D400EA0E0A6E330E096E0C0E0B6E100E0C6EE3
:10E6E400200E0D6E7F0E0E6E0FEC70F00A0E086E8B
:10E6F400030E096E4F0EFEEC71F0070E026ED00E83
:10E70400016EF9EC6FF01E0E086E030E096E4C0ECE
:10E71400FEEC71F0070E026ED00E016EF9EC6FF094
:10E72400320E086E030E096E450EFEEC71F0070EF4
:10E73400026ED00E016EF9EC6FF0460E086E030EF9
:10E74400096E440EFEEC71F0070E026ED00E016EDF
:10E75400F9EC6FF0040E046E040E056E000E78ECF6
:10E7640070F082EC6FF0FFD7000E186E110E176E6A
:10E7740046D12250250AD8B409D00DC0D9FF0EC005
:10E78400DAFF22C0DFFF0D4A0E2A39D1000E216EB6
:10E79400000E206E000E1F6E03D01F840F4A102A35
:10E7A4000FC0F6FF10C0F7FFF86A0800F550300AF2
:10E7B400D8B4F3D70FC0F6FF10C0F7FFF86A08000B
:10E7C400F550C1EC6FF0D8A034D0000E216E000ECD
:10E7D400206E20C001F021C002F0000E046E0A0E6B
:10E7E400036ED1EC6FF001C020F002C021F0D00E16
:10E7F400136EFF0E146E0FC0F6FF10C0F7FFF86A19
:10E804000800F550156E166A13501526145016227A
:10E8140015502026165021220F4A102A0FC0F6FF49
:10E8240010C0F7FFF86A0800F550C1EC6FF0D8B0DB
:10E83400D0D70FC0F6FF10C0F7FF0F4A102AF86AAE
:10E844000800F5CF22F02250000AD8B4E4D0640ABC
:10E85400D8B403D00D0AD8A4D2D017C0D9FF18C099
:10E86400DAFFDECF1AF0DDCF1BF0020E1726000E02
:10E8740018221B50800AF36E800EF35C000ED8B48D
:10E884001A5CD8B006D0030E1F121A6C1B1ED8B027
:10E894001B2A010E226E2250050AD8B419D0225028
:10E8A400020D290EF324F66EEA0EF420F76EF86AD0
:10E8B400000EF8220900F5CF13F00900F5CF14F08B
:10E8C40013501A5C14501B58D8A002D0222AE3D744
:10E8D40021502010D8B409D01FC013F0030E131612
:10E8E400D8B403D02006D8A02106800E22BE7F0E05
:10E8F400136E2050225C2150800A1358D8B007D0E0
:10E904002250205E000E22BEFF0E215A04D0000EBB
:10E91400216E000E206E1FA41ED01FC013F0030E24
:10E924001316D8B408D00DC0D9FF0EC0DAFF2D0ECF
:10E93400DF6E0D4A0E2A21502010D8B42DD00DC000
:10E94400D9FF0EC0DAFF300EDF6E0D4A0E2A200604
:10E95400D8A02106F0D721502010D8B40FD00DC074
:10E96400D9FF0EC0DAFF200EDF6E0D4A0E2A2006F4
:10E97400D8A0210621502010D8A4F1D71FC013F02D
:10E98400030E1316D8B408D00DC0D9FF0EC0DAFF99
:10E994002D0EDF6E0D4A0E2A22C019F02CD019500C
:10E9A400020D290EF324F66EEA0EF420F76EF86ACF
:10E9B400000EF8220900F5CF03F00A00F5CF04F0A9
:10E9C4001AC001F01BC002F0F6EC70F001C008F0B0
:10E9D40002C009F0000E0B6E0A0E0A6EB3EC70F062
:10E9E4000850300F226E0DC0D9FF0EC0DAFF22C0CE
:10E9F400DFFF0D4A0E2A19061928D8A4D0D70FC054
:10EA0400F6FF10C0F7FF0F4A102AF86A0800F5CF86
:10EA140022F02266AED60DC0D9FF0EC0DAFF000E7A
:10EA2400DF6E12000001000A006400E803102700F2
:10EA340000000000000000000000000000000000D2
:10EA4400000000000000000000000000000000F8CA
:10EA540000FE67FE67F800000000000000000000F0
:10EA640000000000003C003C00000000003C003CB2
:10EA74000000000000000000000004203C203FE0F3
:10EA840007FC043C3C203FE007FC043C0020000061
:10EA9400000000F008F8199819FE7FFE7F98199875
:10EAA4001F100F00000000000000303838381C38F8
:10EAB4000E00078003C001E03870383838000000C9
:10EAC400000000001FB83FFC31C621E2373E1E1C87
:10EAD4001C00360022000000000000000000004E70
:10EAE400007E003E00000000000000000000000066
:10EAF4000000000000E007F81FFC3F0E7002400217
:10EB0400400000000000000000000000000240027D
:10EB1400400E70FC3FF81FE00700000000000000FA
:10EB2400000000980CB80EE003F80FF80FE003B8EB
:10EB34000E980C000000000000000080018001809D
:10EB440001F00FF00F80018001800100000000003F
:10EB540000000000000000005C007C003C0000009D
:10EB6400000000000000000000000080018001801F
:10EB7400018001800180018001800100000000000B
:10EB840000000000000000003800380038000000D9
:10EB94000000000000000000000018001C000E002F
:10EBA400078003C001E000700038001C0000000072
:10EBB40000F00FFC3F0C3C066606638661C6606687
:10EBC400603C30FC3FF00F00000000186018601C2F
:10EBD40060FE7FFE7F0060006000600000000000B7
:10EBE4000038603C700E78067C066E06678663C645
:10EBF40061EE607C603860000018181C380E708666
:10EC0400618661866186618661CE73FC3E781C00F4
:10EC1400008007C007E006700638061C060E06FED4
:10EC24007FFE7F0006000600007E18FE38C670C610
:10EC340060C660C660C660C660C671863F061F00B7
:10EC440000801FE03FF073B8619C618E618661862D
:10EC5400618673003F001E000006000600060006E1
:10EC6400600678061E8607E6017E001E0006000088
:10EC740000001E783FFC73CE61866186618661CE9A
:10EC840061FC73783F001E00007800FC00CE6186B2
:10EC940061866186718639861DCE0FFC07F80100F6
:10ECA40000000000000000701C701C701C000000BC
:10ECB4000000000000000000000000000000003818
:10ECC4004E387E383E0000000000000000000000C6
:10ECD4000000008001C003E007700E381C1C380ED1
:10ECE400700660000000000000000060066006601E
:10ECF40006600660066006600660066006000000A6
:10ED040000000006600E701C38381C700EE007C04E
:10ED140003800100000000000038003C000E0006E3
:10ED240000066F866FC601EE007C0038000000000C
:10ED340000F01FFC3F0E30E667F66F366CF66FF698
:10ED44006F0E6CFC07F00300000070007EC00FF82B
:10ED54000D3E0C3E0CF80DC00F007E00700000004C
:10ED640000FE7FFE7F8661866186618661CE61FCDE
:10ED740073783F001E00000000E007F81F1C380EE7
:10ED8400700660066006600E701C381818000000DB
:10ED940000FE7FFE7F06600660066006600E701C43
:10EDA40038F81FE00700000000FE7FFE7F866186C2
:10EDB4006186618661866186610660066000000086
:10EDC40000FE7FFE7F86018601860186018601861C
:10EDD400010600060000000000E007F81F1C380EC2
:10EDE4007006608661866186618E7F8C7F0000007C
:10EDF40000FE7FFE7F800180018001800180018010
:10EE040001FE7FFE7F000000000000000006600697
:10EE140060FE7FFE7F0660066000000000000000C8
:10EE240000001C003C007000600060006000600096
:10EE340070FE3FFE0F00000000FE7FFE7F8001C0D9
:10EE440003E007700E381C1C380E700660000000CA
:10EE540000FE7FFE7F0060006000600060006000D4
:10EE6400600060006000000000FE7FFE7F3C00F058
:10EE740000C003C003F0003C00FE7FFE7F000000E2
:10EE840000FE7FFE7F1C007000E0018007000E0082
:10EE940038FE7FFE7F00000000E007F81F1C380EDC
:10EEA40070066006600E701C38F81FE00700000052
:10EEB40000FE7FFE7F060306030603060306038E99
:10EEC40003FC01F80000000000E007F81F1C380EE6
:10EED400700660066C0E7C1C38F87FE0670000004A
:10EEE40000FE7FFE7F060306030607060F061F8E3D
:10EEF4003BFC71F860000000007818FC38CE718685
:10EF0400618661866186618E731C3F181E00000055
:10EF1400000000060006000600FE7FFE7F060006D5
:10EF2400000600000000000000FE0FFE3F0070001D
:10EF3400600060006000600070FE3FFE0F00000093
:10EF4400000E007E00F003801F007C007C801FF018
:10EF5400037E000E0000000000FE7FFE7F003800EC
:10EF64000C00070007000C0038FE7FFE7F00000045
:10EF74000006601E78381C6006C003C003600638B3
:10EF84001C1E7806600000000006001E007800E0E9
:10EF940001807F807FE00178001E000600000000F1
:10EFA4000006600678067C06668663C66166603E77
:10EFB400601E6006600000000000000000FE7FFE8E
:10EFC4007F06600660066006600000000000000026
:10EFD400001C0038007000E000C00180030007003E
:10EFE4000E001C003800000000000000000660064F
:10EFF4006006600660FE7FFE7F00000000000000E7
:10F0040000C000E000700038001C000E001C003836
:10F01400007000E000C000000000600060006000BC
:10F02400600060006000600060006000600000003C
:10F034000000000000000000003E007E004E0000C2
:10F04400000000000000000000001C403E6033602F
:10F05400336033603360336033E03FC03F0000000F
:10F0640000FE7FFE7F8061C060C060C060C060C081
:10F0740071803F001F00000000800FC01FE0386057
:10F08400306030603060306030C0188008000000AC
:10F0940000001F803FC071C060C060C060C061805C
:10F0A40061FE7FFE7F00000000800FC01FE03B6018
:10F0B400336033603360336033C013800100000079
:10F0C40000000080018001F87FFC7F8E01860186AC
:10F0D400010600000000000000C001E0637067301A
:10F0E400663066306630663073F03FF01F00000013
:10F0F40000FE7FFE7F8001C000C000C000C0018010
:10F104007F007F000000000000000000000030606D
:10F1140030EC3FEC3F003000300000000000000005
:10F1240000000000000030007000603060F67FF6E0
:10F134003F00000000000000000000FE7FFE7F0092
:10F1440006000F801FC039C070006000000000007E
:10F15400000000000000600660FE7FFE7F0060008B
:10F16400600000000000000000E03FC03FE000E05D
:10F1740000C03FC03FE000E000C03F803F0000000F
:10F18400000000E03FE03F6000600060006000E0DD
:10F1940000C03F803F00000000800FC01FE03860C7
:10F1A40030603060306030E038C01F800F000000F5
:10F1B40000F07FF07F3006300C300C300C300C70D7
:10F1C4000EE007C00300000000C003E007700E302B
:10F1D4000C300C300C300C3006F07FF07F00000057
:10F1E400000000E03FE03FC000600060006000609D
:10F1F40000E000C000000000000000C011E0336027
:10F2040033603360336033603F401E000000000011
:10F2140000000060006000FE1FFE3F603060306050
:10F22400300030000000000000E00FE01F00380054
:10F23400300030003000300018E03FE03F000000B4
:10F24400006000E0018007001E00380038001E80C6
:10F2540007E001600000000000E007E01F00380044
:10F264001CE00FE00F001C0038E01FE00700000066
:10F27400006030E038C01D800F0007800FC01DE023
:10F2840038603000000000000000003000F040C092
:10F2940073003F000FC003F00030000000000000C6
:10F2A4000060306038603C60366033E031E03060EC
:10F2B40030203000000000000000008000C001FC8D
:10F2C4001F7E3F07700360036003600000000000BE
:10F2D4000000000000000000007E7F7E7F00000030
:10F2E4000000000000000000000000036003600351
:10F2F4006007707E3FFC1FC001800000000000001A
:10F3040000100018000C0004000C00180010001875
:10F31400000C00040000000000000F800FC00C600F
:10F324000C300C300C600CC00C800F000F0000007F
:10F3340000000000000000000000000000000000C9
:10F3440000000000000000000000000000000000B9
:10F3540000000000000000000000000E000000009B
:10F364001F000000001F000000001F000000001F1D
:10F37400000000001F000000001F000000001F002C
:10F384000000000E0000000000000000000000006B
:10F394000000000000000000000000000000000069
:10F3A4000000000000000000000000000000000059
:10F3B4000000000000000000000000000000000049
:10F3C4000000000000000000000000000000000039
:10F3D4000000000000000000000000000000000029
:10F3E4000000000000000000000000000000000019
:10F3F4000000000000000000000000000000000009
:10F4040000000000000000000000000000000000F8
:10F4140000000000000000000000000000000000E8
:10F4240000000000000000000000000000000000D8
:10F43400000000F0FFF7FF07E0FFE3FF03C4FFC194
:10F44400FF118CFF80FF181C7F007F1C3C00000014
:10F454001E7C0000001F7C0000001F7C0000001FB9
:10F464007C0000001F7C0000001F7C0000001F7C4B
:10F474000000001F7C0000001F7C0000001F3C00F7
:10F4840000001E1C7F007F1C8CFF80FF18C4FFC17E
:10F49400FF11E0FFE3FF03F0FFF7FF0700000000A8
:10F4A4000000000000000000000000000000000058
:10F4B4000000000000000000000000000000000048
:10F4C4000000000000000000000000000000000038
:10F4D4000000000000000000000000000000000028
:10F4E4000000000000000000000000000000000018
:10F4F4000000000000000000000000000000000008
:10F50400007F007F0080FF80FF00C0FFC1FF01E09B
:10F51400FFE3FF03F0FFF7FF070000000000000017
:10F52400000000000000000000000000000000F0E7
:10F53400FF070000E0FF030400C0FF110C0088FF78
:10F54400181C001C7F1C3C003E001E7C003E001F5B
:10F554007C003E001F7C003E001F7C003E001F7CA0
:10F56400003E001F7C003E001F7C003E001F7C000C
:10F574003E001F7C003E001F3C003E001E1C7F1C02
:10F58400001C8CFF080018C4FF010010E0FF0300FA
:10F5940000F0FF0700000000000000000000000071
:10F5A4000000000000000000000000000000000057
:10F5B4000000000004000000100C000800181C00EB
:10F5C4001C001C3C003E001E7C003E001F7C003ED4
:10F5D400001F7C003E001F7C003E001F7C003E009C
:10F5E4001F7C003E001F7C003E001F7C003E001F6D
:10F5F4007C003E001F3C003E001E1C7F1C7F1C8CB8
:10F60400FF88FF18C4FFC1FF11E0FFE3FF03F0FF11
:10F61400F7FF0700000000000000000000000000E9
:10F6240000000000000000F0FF070000E0FF0300FE
:10F6340000C0FF01000080FF080000007F1C0000E4
:10F6440000003E000000003E000000003E000000FC
:10F65400003E000000003E000000003E00000000EC
:10F664003E000000003E000000003E000000003E9E
:10F67400000000003E0000007F1C7F0080FF88FF28
:10F6840000C0FFC1FF01E0FFE3FF03F0FFF7FF0746
:10F694000000000000000000000000000000000066
:10F6A40000000000F0FF070000E0FF030000C4FFBB
:10F6B4000100108CFF0800181C7F1C001C3C003E3D
:10F6C400001E7C003E001F7C003E001F7C003E00AC
:10F6D4001F7C003E001F7C003E001F7C003E001F7C
:10F6E4007C003E001F7C003E001F7C003E001F3C4F
:10F6F400003E001E1C001C7F1C0C0088FF18040028
:10F70400C0FF110000E0FF030000F0FF070000004D
:10F7140000000000000000000000000000000000E5
:10F7240000F0FFF7FF07E0FFE3FF03C0FFC1FF1195
:10F7340080FF88FF18007F1C7F1C00003E001E0015
:10F74400003E001F00003E001F00003E001F00009E
:10F754003E001F00003E001F00003E001F00003E50
:10F76400001F00003E001F00003E001F00003E007E
:10F774001E00001C7F1C000088FF180000C0FF1141
:10F784000000E0FF030000F0FF070000000000009D
:10F794000000000000000000000000000000000065
:10F7A400000000000000000004000000000C000045
:10F7B40000001C000000003C000000007C00000071
:10F7C400007C000000007C000000007C00000000C1
:10F7D4007C000000007C000000007C000000007C35
:10F7E400000000007C000000003C000000001C7FC2
:10F7F400007F008CFF80FF00C4FFC1FF01E0FFE336
:10F80400FF03F0FFF7FF0700000000000000000006
:10F814000000000000000000000000F0FFF7FF07F8
:10F82400E0FFE3FF03C4FFC1FF118CFF88FF181C36
:10F834007F1C7F1C3C003E001E7C003E001F7C00A1
:10F844003E001F7C003E001F7C003E001F7C003EEB
:10F85400001F7C003E001F7C003E001F7C003E0019
:10F864001F7C003E001F3C003E001E1C7F1C7F1CB2
:10F874008CFF88FF18C4FFC1FF11E0FFE3FF03F012
:10F88400FFF7FF0700000000000000000000000078
:10F894000000000000000000F0FF070000E0FF038C
:10F8A4000000C4FF0100008CFF0800001C7F1C0046
:10F8B400003C003E00007C003E00007C003E000056
:10F8C4007C003E00007C003E00007C003E00007C8A
:10F8D400003E00007C003E00007C003E00007C00F6
:10F8E4003E00003C003E00001C7F1C7F008CFF8813
:10F8F400FF00C4FFC1FF01E0FFE3FF03F0FFF7FFD8
:10F9040007000000000000000000000000000000EC
:10F9140000000000000000000000000000000004DF
:10F92400000000100C000000181C0000001C3C002B
:10F9340000001E7C0000001F7C0000001F7C0000F3
:10F94400001F7C0000001F7C0000001F7C000000E2
:10F954001F7C0000001F7C0000001F7C0000001FB3
:10F964003C0000001E1C0000001C0C0000001804D9
:10F974000000001000000000000000000000000073
:10F984000000000000000000000000000000000073
:10F994000000000000000000000000000000000063
:10F9A4000000000000000000000000000000000053
:10F9B4000000000000000000000000000000000043
:10F9C4000000000000000000000000000000000033
:10F9D4000000000000000000000000000000000023
:10F9E4000000000000000000000000000000000013
:10F9F4000000000000000000000000000000000003
:10FA040000000000000000000000000000000000F2
:10FA140000000000808080808040404040404020C2
:10FA240020202020202020202020202020202020D2
:10FA340020202020202020202020202020202020C2
:10FA440020202020202020202020A0A0A060E0E072
:10FA54006060602000202020202020202020000042
:10FA64004040400080000000000000000000000052
:10FA74000000000000000000000000000000000082
:10FA840000000000000000000000000000FE000173
:10FA940001010101FDFDFDFD010101010101FDFD6A
:10FAA400FDFD01010101FDFDFDFDF9F1E1C181C192
:10FAB400E1F9FDFDFDFDFD01010101FDFDFDFDDDA2
:10FAC400DDDD1D1101FF0101010100FE01A808088F
:10FAD40008080808080808080808080810E0182496
:10FAE4008400028205514470A0C0606020008080C0
:10FAF400C0C0C04000000000008000000000000002
:10FB0400000000000000000000000000003F6060F2
:10FB140060E060607F7F7F7F7C7C7C7C60607F7F37
:10FB24007F7F606060607F7F7F7F61676F7F7F6FB3
:10FB34006763617F7F7F7F606060607F7F7F7F7DA1
:10FB44007D7D7C74607F404040A060FCF6010E0621
:10FB54000602020202020202020202020242723C93
:10FB64002010100004020302000000040404041422
:10FB7400101010101009092970204305F07EAE8082
:10FB84003800000000000000000000000000000039
:10FB9400000101010101010101017F7F7F7FFFFF5E
:10FBA400F7FB7BBF5F5D7DBDBD3F5D59B173F3E581
:10FBB400CF1B3F77FFCFBFFFFFFFFFFFFFFFFF7F9D
:10FBC4007F7F7F7F7F7F7FFFFFFF7F7F7D787878D8
:10FBD4007878F8787878787878F8F8E08700000012
:10FBE400000000000080F0F878BCDC5CFC1C1C3CCD
:10FBF4005C5C3C78F8F860C08FA8D888314448022F
:10FC0400A06000000000000000000080C0F8F8F8C8
:10FC1400F8FCFEFEFEFEFEFEFEFEFEFEFEFFFFFF05
:10FC2400FFFFF6EFD0F6AEADA980D1D0E0F7F9FF33
:10FC3400FFFCDCF07FFFDFFFFFFFFFFFFFFEFEFFA7
:10FC4400FFFFFFFFFFFFFEFFFFFFFFFFFFFFFEFEC3
:10FC5400FEFEFEFEFEFEFEFEFEFEFEFEFFFFFFFFBC
:10FC6400FFFFFEFFBEFFFFFDF0EFDDDFFEA888AA69
:10FC7400C4D0E4E6F87F7E9CD8E0F0F0F2F2F0B174
:10FC84002000000000000000000000010101010349
:10FC9400030307070707070F0F0F070F0F0F0707C8
:10FCA4000F0E0F0D0F2F2B2B2B2B2B2F6FEFFFFD79
:10FCB400FDFFFEFFFFFFFFFFBFBFEFEFEFBFFFBF83
:10FCC400FFFFFFFFFFFFFFFFFFFFFFFFFFFFFFFF40
:10FCD400FFFFFFFFFFFFFFFFFFFFFFFF7F7F7F7F30
:10FCE400FFFFBFBFBFBFFFFEFFFDFFFFFFFBFFFF27
:10FCF400FF7F7D3F1F1F1F1F1F1F3F0F0F0707039E
:10FD040003030000000000000000000000000000E9
:10FD140000000000000000000000000000000000DF
:10FD240000000000000000000000000000000000CF
:10FD340000000000000101000101000000000000BB
:10FD44000000000001010101010101010303030B93
:10FD54000B0B0B07030E06060602121313031715EB
:10FD640015110113130306060E0F0F070F0F0F0BC8
:10FD7400020000000000000000000000000000007D
:10FD8400000000000000000000000000000000006F
:10FD94005F000000000700070000147F147F1400B8
:10FDA400242A7F2A1200231308646200364955224C
:10FDB4005000000503000000001C22410000004127
:10FDC400221C0000082A1C2A080008083E08080013
:10FDD4000050300000000808080808000030300017
:10FDE40000002010080402003E5149453E00004234
:10FDF4007F4000004261514946002141454B31009A
:10FE04001814127F10002745454539003C4A4949DA
:10FE14003000017109050300364949493600064995
:10FE240049291E0000363600000000563600000046
:10FE3400000814224100141414141400412214085C
:10FE44000000020151090600324979413E007E1149
:10FE540011117E007F49494936003E41414122004B
:10FE64007F4141221C007F49494941007F09090122
:10FE740001003E41415132007F0808087F000041E3
:10FE84007F4100002040413F01007F0814224100CF
:10FE94007F40404040007F0204027F007F0408103E
:10FEA4007F003E4141413E007F09090906003E4171
:10FEB40051215E007F09192946004649494931000C
:10FEC40001017F0101003F4040403F001F204020CE
:10FED4001F007F2018207F006314081463000304AC
:10FEE4007804030061514945430000007F4141000B
:10FEF40002040810200041417F00000004020102B6
:10FF0400040040404040400000010204000020542E
:10FF1400545478007F484444380038444444200012
:10FF2400384444487F00385454541800087E09016A
:10FF34000200081454543C007F0804047800004470
:10FF44007D4000002040443D0000007F1028440014
:10FF540000417F4000007C04180478007C080404FD
:10FF640078003844444438007C14141408000814FD
:10FF740014187C007C0804040800485454542000DD
:10FF8400043F444020003C4040207C001C20402092
:10FF94001C003C4030403C004428102844000C50D5
:10FFA40050503C004464544C440000083641000066
:10FFB40000007F00000000413608000008082A1CE9
:10FFC4000800081C2A0808004F4C454420313238E8
:10FFD400783634006C69627261727920666F7200DF
:10FFE400535344313330360047726170686963009B
:0CFFF400466F6E7473002530336400000B
:020000040020DA
:08000000FFFFFFFFFFFFFFFF00
:020000040030CA
:0E000000FF281F3CFF3F81FF0FC00FE00F40A5
:00000001FF
